{
  "transactions": [
    {
      "hash": "0x7b8548107cb40017d39ce7d286b7e2d1f1a464bbd61fa6166d650d1b650ab831",
      "transactionType": "CALL",
      "contractName": null,
      "contractAddress": "0xfe2abc15793204656c6ba51d0d6b4741b16a1895",
      "function": "batchMint(uint256)",
      "arguments": [
        "10"
      ],
      "transaction": {
        "from": "0x6f82486463f12a422dbc7c32cb34a7ed8e26bb99",
        "to": "0xfe2abc15793204656c6ba51d0d6b4741b16a1895",
        "gas": "0xc8609",
        "value": "0x0",
        "input": "0x8467be0d000000000000000000000000000000000000000000000000000000000000000a",
        "nonce": "0x447",
        "chainId": "0xaa36a7"
      },
      "additionalContracts": [],
      "isFixedGasLimit": false
    },
    {
      "hash": "0x2fb5adeefbc4cfe563a7ff3d1b277d35f0fdaefa7a5ff2b42124321f60e371c2",
      "transactionType": "CALL",
      "contractName": null,
      "contractAddress": "0xfe2abc15793204656c6ba51d0d6b4741b16a1895",
      "function": "setApprovalForAll(address,bool)",
      "arguments": [
        "0x8fF9fdf34811CBB03600b032929c83028Fa89095",
        "true"
      ],
      "transaction": {
        "from": "0x6f82486463f12a422dbc7c32cb34a7ed8e26bb99",
        "to": "0xfe2abc15793204656c6ba51d0d6b4741b16a1895",
        "gas": "0x10a82",
        "value": "0x0",
        "input": "0xa22cb4650000000000000000000000008ff9fdf34811cbb03600b032929c83028fa890950000000000000000000000000000000000000000000000000000000000000001",
        "nonce": "0x448",
        "chainId": "0xaa36a7"
      },
      "additionalContracts": [],
      "isFixedGasLimit": false
    },
    {
      "hash": "0x7cf6ed95f3467be1b92c4eb5c678117325ae167f0ae09f120c295f0da55b4fba",
      "transactionType": "CALL",
      "contractName": null,
      "contractAddress": "0x8ff9fdf34811cbb03600b032929c83028fa89095",
      "function": "listNFT(address,uint256,uint256)",
      "arguments": [
        "0xFe2aBc15793204656C6bA51D0d6b4741B16A1895",
        "1",
        "100000000000000"
      ],
      "transaction": {
        "from": "0x6f82486463f12a422dbc7c32cb34a7ed8e26bb99",
        "to": "0x8ff9fdf34811cbb03600b032929c83028fa89095",
        "gas": "0x431e5",
        "value": "0x0",
        "input": "0xad05f1b4000000000000000000000000fe2abc15793204656c6ba51d0d6b4741b16a1895000000000000000000000000000000000000000000000000000000000000000100000000000000000000000000000000000000000000000000005af3107a4000",
        "nonce": "0x449",
        "chainId": "0xaa36a7"
      },
      "additionalContracts": [],
      "isFixedGasLimit": false
    },
    {
      "hash": "0x6ddb70478825796517fe74a4507e2b0fae2abc346697429f69e0db34a781f449",
      "transactionType": "CALL",
      "contractName": null,
      "contractAddress": "0x8ff9fdf34811cbb03600b032929c83028fa89095",
      "function": "listNFT(address,uint256,uint256)",
      "arguments": [
        "0xFe2aBc15793204656C6bA51D0d6b4741B16A1895",
        "2",
        "100000000000000"
      ],
      "transaction": {
        "from": "0x6f82486463f12a422dbc7c32cb34a7ed8e26bb99",
        "to": "0x8ff9fdf34811cbb03600b032929c83028fa89095",
        "gas": "0x399f8",
        "value": "0x0",
        "input": "0xad05f1b4000000000000000000000000fe2abc15793204656c6ba51d0d6b4741b16a1895000000000000000000000000000000000000000000000000000000000000000200000000000000000000000000000000000000000000000000005af3107a4000",
        "nonce": "0x44a",
        "chainId": "0xaa36a7"
      },
      "additionalContracts": [],
      "isFixedGasLimit": false
    },
    {
      "hash": "0xa62e3e04d4cba86af6915d2f9b692d3482c0838c87b61265e2a1bac6a4bb77fc",
      "transactionType": "CALL",
      "contractName": null,
      "contractAddress": "0x8ff9fdf34811cbb03600b032929c83028fa89095",
      "function": "listNFT(address,uint256,uint256)",
      "arguments": [
        "0xFe2aBc15793204656C6bA51D0d6b4741B16A1895",
        "3",
        "100000000000000"
      ],
      "transaction": {
        "from": "0x6f82486463f12a422dbc7c32cb34a7ed8e26bb99",
        "to": "0x8ff9fdf34811cbb03600b032929c83028fa89095",
        "gas": "0x399f8",
        "value": "0x0",
        "input": "0xad05f1b4000000000000000000000000fe2abc15793204656c6ba51d0d6b4741b16a1895000000000000000000000000000000000000000000000000000000000000000300000000000000000000000000000000000000000000000000005af3107a4000",
        "nonce": "0x44b",
        "chainId": "0xaa36a7"
      },
      "additionalContracts": [],
      "isFixedGasLimit": false
    },
    {
      "hash": "0x9d060ccf12c18f1e820cb47830bf7c24c6aa629e1677599530b6cca0322a4069",
      "transactionType": "CALL",
      "contractName": null,
      "contractAddress": "0x8ff9fdf34811cbb03600b032929c83028fa89095",
      "function": "listNFT(address,uint256,uint256)",
      "arguments": [
        "0xFe2aBc15793204656C6bA51D0d6b4741B16A1895",
        "4",
        "100000000000000"
      ],
      "transaction": {
        "from": "0x6f82486463f12a422dbc7c32cb34a7ed8e26bb99",
        "to": "0x8ff9fdf34811cbb03600b032929c83028fa89095",
        "gas": "0x399f8",
        "value": "0x0",
        "input": "0xad05f1b4000000000000000000000000fe2abc15793204656c6ba51d0d6b4741b16a1895000000000000000000000000000000000000000000000000000000000000000400000000000000000000000000000000000000000000000000005af3107a4000",
        "nonce": "0x44c",
        "chainId": "0xaa36a7"
      },
      "additionalContracts": [],
      "isFixedGasLimit": false
    },
    {
      "hash": "0x58099a228a5b393cacbfa428a90a7dfd8c0107d569fb0e276aa22d94f83c2e8f",
      "transactionType": "CALL",
      "contractName": null,
      "contractAddress": "0x8ff9fdf34811cbb03600b032929c83028fa89095",
      "function": "listNFT(address,uint256,uint256)",
      "arguments": [
        "0xFe2aBc15793204656C6bA51D0d6b4741B16A1895",
        "5",
        "100000000000000"
      ],
      "transaction": {
        "from": "0x6f82486463f12a422dbc7c32cb34a7ed8e26bb99",
        "to": "0x8ff9fdf34811cbb03600b032929c83028fa89095",
        "gas": "0x399f8",
        "value": "0x0",
        "input": "0xad05f1b4000000000000000000000000fe2abc15793204656c6ba51d0d6b4741b16a1895000000000000000000000000000000000000000000000000000000000000000500000000000000000000000000000000000000000000000000005af3107a4000",
        "nonce": "0x44d",
        "chainId": "0xaa36a7"
      },
      "additionalContracts": [],
      "isFixedGasLimit": false
    },
    {
      "hash": "0x4a145622d693912f2696e0c58cfde2997903dce3283e26c1b7c27ea8929145c7",
      "transactionType": "CALL",
      "contractName": null,
      "contractAddress": "0x8ff9fdf34811cbb03600b032929c83028fa89095",
      "function": "editListOrder(address,uint256,uint256)",
      "arguments": [
        "0xFe2aBc15793204656C6bA51D0d6b4741B16A1895",
        "1",
        "150000000000000"
      ],
      "transaction": {
        "from": "0x6f82486463f12a422dbc7c32cb34a7ed8e26bb99",
        "to": "0x8ff9fdf34811cbb03600b032929c83028fa89095",
        "gas": "0xc8a9",
        "value": "0x0",
        "input": "0x323ef340000000000000000000000000fe2abc15793204656c6ba51d0d6b4741b16a189500000000000000000000000000000000000000000000000000000000000000010000000000000000000000000000000000000000000000000000886c98b76000",
        "nonce": "0x44e",
        "chainId": "0xaa36a7"
      },
      "additionalContracts": [],
      "isFixedGasLimit": false
    }
  ],
  "receipts": [
    {
      "status": "0x1",
      "cumulativeGasUsed": "0x1198aeb",
      "logs": [
        {
          "address": "0xfe2abc15793204656c6ba51d0d6b4741b16a1895",
          "topics": [
            "0xddf252ad1be2c89b69c2b068fc378daa952ba7f163c4a11628f55a4df523b3ef",
            "0x0000000000000000000000000000000000000000000000000000000000000000",
            "0x0000000000000000000000006f82486463f12a422dbc7c32cb34a7ed8e26bb99",
            "0x0000000000000000000000000000000000000000000000000000000000000001"
          ],
          "data": "0x",
          "blockHash": "0x46db7050312f009a93f930477f574d1dc21f6e4c5c402ab259d7938e64df4ecb",
          "blockNumber": "0xa8647d",
          "blockTimestamp": "0x6a2a791c",
          "transactionHash": "0x7cf6ed95f3467be1b92c4eb5c678117325ae167f0ae09f120c295f0da55b4fba",
          "transactionIndex": "0xdb",
          "logIndex": "0x241",
          "removed": false
        },
        {
          "address": "0xfe2abc15793204656c6ba51d0d6b4741b16a1895",
          "topics": [
            "0xf8e1a15aba9398e019f0b49df1a4fde98ee17ae345cb5f6b5e2c27f5033e8ce7"
          ],
          "data": "0x0000000000000000000000000000000000000000000000000000000000000001",
          "blockHash": "0x46db7050312f009a93f930477f574d1dc21f6e4c5c402ab259d7938e64df4ecb",
          "blockNumber": "0xa8647d",
          "blockTimestamp": "0x6a2a791c",
          "transactionHash": "0x7cf6ed95f3467be1b92c4eb5c678117325ae167f0ae09f120c295f0da55b4fba",
          "transactionIndex": "0xdb",
          "logIndex": "0x242",
          "removed": false
        },
        {
          "address": "0xfe2abc15793204656c6ba51d0d6b4741b16a1895",
          "topics": [
            "0xddf252ad1be2c89b69c2b068fc378daa952ba7f163c4a11628f55a4df523b3ef",
            "0x0000000000000000000000000000000000000000000000000000000000000000",
            "0x0000000000000000000000006f82486463f12a422dbc7c32cb34a7ed8e26bb99",
            "0x0000000000000000000000000000000000000000000000000000000000000002"
          ],
          "data": "0x",
          "blockHash": "0x46db7050312f009a93f930477f574d1dc21f6e4c5c402ab259d7938e64df4ecb",
          "blockNumber": "0xa8647d",
          "blockTimestamp": "0x6a2a791c",
          "transactionHash": "0x7cf6ed95f3467be1b92c4eb5c678117325ae167f0ae09f120c295f0da55b4fba",
          "transactionIndex": "0xdb",
          "logIndex": "0x243",
          "removed": false
        },
        {
          "address": "0xfe2abc15793204656c6ba51d0d6b4741b16a1895",
          "topics": [
            "0xf8e1a15aba9398e019f0b49df1a4fde98ee17ae345cb5f6b5e2c27f5033e8ce7"
          ],
          "data": "0x0000000000000000000000000000000000000000000000000000000000000002",
          "blockHash": "0x46db7050312f009a93f930477f574d1dc21f6e4c5c402ab259d7938e64df4ecb",
          "blockNumber": "0xa8647d",
          "blockTimestamp": "0x6a2a791c",
          "transactionHash": "0x7cf6ed95f3467be1b92c4eb5c678117325ae167f0ae09f120c295f0da55b4fba",
          "transactionIndex": "0xdb",
          "logIndex": "0x244",
          "removed": false
        },
        {
          "address": "0xfe2abc15793204656c6ba51d0d6b4741b16a1895",
          "topics": [
            "0xddf252ad1be2c89b69c2b068fc378daa952ba7f163c4a11628f55a4df523b3ef",
            "0x0000000000000000000000000000000000000000000000000000000000000000",
            "0x0000000000000000000000006f82486463f12a422dbc7c32cb34a7ed8e26bb99",
            "0x0000000000000000000000000000000000000000000000000000000000000003"
          ],
          "data": "0x",
          "blockHash": "0x46db7050312f009a93f930477f574d1dc21f6e4c5c402ab259d7938e64df4ecb",
          "blockNumber": "0xa8647d",
          "blockTimestamp": "0x6a2a791c",
          "transactionHash": "0x7cf6ed95f3467be1b92c4eb5c678117325ae167f0ae09f120c295f0da55b4fba",
          "transactionIndex": "0xdb",
          "logIndex": "0x245",
          "removed": false
        },
        {
          "address": "0xfe2abc15793204656c6ba51d0d6b4741b16a1895",
          "topics": [
            "0xf8e1a15aba9398e019f0b49df1a4fde98ee17ae345cb5f6b5e2c27f5033e8ce7"
          ],
          "data": "0x0000000000000000000000000000000000000000000000000000000000000003",
          "blockHash": "0x46db7050312f009a93f930477f574d1dc21f6e4c5c402ab259d7938e64df4ecb",
          "blockNumber": "0xa8647d",
          "blockTimestamp": "0x6a2a791c",
          "transactionHash": "0x7cf6ed95f3467be1b92c4eb5c678117325ae167f0ae09f120c295f0da55b4fba",
          "transactionIndex": "0xdb",
          "logIndex": "0x246",
          "removed": false
        },
        {
          "address": "0xfe2abc15793204656c6ba51d0d6b4741b16a1895",
          "topics": [
            "0xddf252ad1be2c89b69c2b068fc378daa952ba7f163c4a11628f55a4df523b3ef",
            "0x0000000000000000000000000000000000000000000000000000000000000000",
            "0x0000000000000000000000006f82486463f12a422dbc7c32cb34a7ed8e26bb99",
            "0x0000000000000000000000000000000000000000000000000000000000000004"
          ],
          "data": "0x",
          "blockHash": "0x46db7050312f009a93f930477f574d1dc21f6e4c5c402ab259d7938e64df4ecb",
          "blockNumber": "0xa8647d",
          "blockTimestamp": "0x6a2a791c",
          "transactionHash": "0x7cf6ed95f3467be1b92c4eb5c678117325ae167f0ae09f120c295f0da55b4fba",
          "transactionIndex": "0xdb",
          "logIndex": "0x247",
          "removed": false
        },
        {
          "address": "0xfe2abc15793204656c6ba51d0d6b4741b16a1895",
          "topics": [
            "0xf8e1a15aba9398e019f0b49df1a4fde98ee17ae345cb5f6b5e2c27f5033e8ce7"
          ],
          "data": "0x0000000000000000000000000000000000000000000000000000000000000004",
          "blockHash": "0x46db7050312f009a93f930477f574d1dc21f6e4c5c402ab259d7938e64df4ecb",
          "blockNumber": "0xa8647d",
          "blockTimestamp": "0x6a2a791c",
          "transactionHash": "0x7cf6ed95f3467be1b92c4eb5c678117325ae167f0ae09f120c295f0da55b4fba",
          "transactionIndex": "0xdb",
          "logIndex": "0x248",
          "removed": false
        },
        {
          "address": "0xfe2abc15793204656c6ba51d0d6b4741b16a1895",
          "topics": [
            "0xddf252ad1be2c89b69c2b068fc378daa952ba7f163c4a11628f55a4df523b3ef",
            "0x0000000000000000000000000000000000000000000000000000000000000000",
            "0x0000000000000000000000006f82486463f12a422dbc7c32cb34a7ed8e26bb99",
            "0x0000000000000000000000000000000000000000000000000000000000000005"
          ],
          "data": "0x",
          "blockHash": "0x46db7050312f009a93f930477f574d1dc21f6e4c5c402ab259d7938e64df4ecb",
          "blockNumber": "0xa8647d",
          "blockTimestamp": "0x6a2a791c",
          "transactionHash": "0x7cf6ed95f3467be1b92c4eb5c678117325ae167f0ae09f120c295f0da55b4fba",
          "transactionIndex": "0xdb",
          "logIndex": "0x249",
          "removed": false
        },
        {
          "address": "0xfe2abc15793204656c6ba51d0d6b4741b16a1895",
          "topics": [
            "0xf8e1a15aba9398e019f0b49df1a4fde98ee17ae345cb5f6b5e2c27f5033e8ce7"
          ],
          "data": "0x0000000000000000000000000000000000000000000000000000000000000005",
          "blockHash": "0x46db7050312f009a93f930477f574d1dc21f6e4c5c402ab259d7938e64df4ecb",
          "blockNumber": "0xa8647d",
          "blockTimestamp": "0x6a2a791c",
          "transactionHash": "0x7cf6ed95f3467be1b92c4eb5c678117325ae167f0ae09f120c295f0da55b4fba",
          "transactionIndex": "0xdb",
          "logIndex": "0x24a",
          "removed": false
        },
        {
          "address": "0xfe2abc15793204656c6ba51d0d6b4741b16a1895",
          "topics": [
            "0xddf252ad1be2c89b69c2b068fc378daa952ba7f163c4a11628f55a4df523b3ef",
            "0x0000000000000000000000000000000000000000000000000000000000000000",
            "0x0000000000000000000000006f82486463f12a422dbc7c32cb34a7ed8e26bb99",
            "0x0000000000000000000000000000000000000000000000000000000000000006"
          ],
          "data": "0x",
          "blockHash": "0x46db7050312f009a93f930477f574d1dc21f6e4c5c402ab259d7938e64df4ecb",
          "blockNumber": "0xa8647d",
          "blockTimestamp": "0x6a2a791c",
          "transactionHash": "0x7cf6ed95f3467be1b92c4eb5c678117325ae167f0ae09f120c295f0da55b4fba",
          "transactionIndex": "0xdb",
          "logIndex": "0x24b",
          "removed": false
        },
        {
          "address": "0xfe2abc15793204656c6ba51d0d6b4741b16a1895",
          "topics": [
            "0xf8e1a15aba9398e019f0b49df1a4fde98ee17ae345cb5f6b5e2c27f5033e8ce7"
          ],
          "data": "0x0000000000000000000000000000000000000000000000000000000000000006",
          "blockHash": "0x46db7050312f009a93f930477f574d1dc21f6e4c5c402ab259d7938e64df4ecb",
          "blockNumber": "0xa8647d",
          "blockTimestamp": "0x6a2a791c",
          "transactionHash": "0x7cf6ed95f3467be1b92c4eb5c678117325ae167f0ae09f120c295f0da55b4fba",
          "transactionIndex": "0xdb",
          "logIndex": "0x24c",
          "removed": false
        },
        {
          "address": "0xfe2abc15793204656c6ba51d0d6b4741b16a1895",
          "topics": [
            "0xddf252ad1be2c89b69c2b068fc378daa952ba7f163c4a11628f55a4df523b3ef",
            "0x0000000000000000000000000000000000000000000000000000000000000000",
            "0x0000000000000000000000006f82486463f12a422dbc7c32cb34a7ed8e26bb99",
            "0x0000000000000000000000000000000000000000000000000000000000000007"
          ],
          "data": "0x",
          "blockHash": "0x46db7050312f009a93f930477f574d1dc21f6e4c5c402ab259d7938e64df4ecb",
          "blockNumber": "0xa8647d",
          "blockTimestamp": "0x6a2a791c",
          "transactionHash": "0x7cf6ed95f3467be1b92c4eb5c678117325ae167f0ae09f120c295f0da55b4fba",
          "transactionIndex": "0xdb",
          "logIndex": "0x24d",
          "removed": false
        },
        {
          "address": "0xfe2abc15793204656c6ba51d0d6b4741b16a1895",
          "topics": [
            "0xf8e1a15aba9398e019f0b49df1a4fde98ee17ae345cb5f6b5e2c27f5033e8ce7"
          ],
          "data": "0x0000000000000000000000000000000000000000000000000000000000000007",
          "blockHash": "0x46db7050312f009a93f930477f574d1dc21f6e4c5c402ab259d7938e64df4ecb",
          "blockNumber": "0xa8647d",
          "blockTimestamp": "0x6a2a791c",
          "transactionHash": "0x7cf6ed95f3467be1b92c4eb5c678117325ae167f0ae09f120c295f0da55b4fba",
          "transactionIndex": "0xdb",
          "logIndex": "0x24e",
          "removed": false
        },
        {
          "address": "0xfe2abc15793204656c6ba51d0d6b4741b16a1895",
          "topics": [
            "0xddf252ad1be2c89b69c2b068fc378daa952ba7f163c4a11628f55a4df523b3ef",
            "0x0000000000000000000000000000000000000000000000000000000000000000",
            "0x0000000000000000000000006f82486463f12a422dbc7c32cb34a7ed8e26bb99",
            "0x0000000000000000000000000000000000000000000000000000000000000008"
          ],
          "data": "0x",
          "blockHash": "0x46db7050312f009a93f930477f574d1dc21f6e4c5c402ab259d7938e64df4ecb",
          "blockNumber": "0xa8647d",
          "blockTimestamp": "0x6a2a791c",
          "transactionHash": "0x7cf6ed95f3467be1b92c4eb5c678117325ae167f0ae09f120c295f0da55b4fba",
          "transactionIndex": "0xdb",
          "logIndex": "0x24f",
          "removed": false
        },
        {
          "address": "0xfe2abc15793204656c6ba51d0d6b4741b16a1895",
          "topics": [
            "0xf8e1a15aba9398e019f0b49df1a4fde98ee17ae345cb5f6b5e2c27f5033e8ce7"
          ],
          "data": "0x0000000000000000000000000000000000000000000000000000000000000008",
          "blockHash": "0x46db7050312f009a93f930477f574d1dc21f6e4c5c402ab259d7938e64df4ecb",
          "blockNumber": "0xa8647d",
          "blockTimestamp": "0x6a2a791c",
          "transactionHash": "0x7cf6ed95f3467be1b92c4eb5c678117325ae167f0ae09f120c295f0da55b4fba",
          "transactionIndex": "0xdb",
          "logIndex": "0x250",
          "removed": false
        },
        {
          "address": "0xfe2abc15793204656c6ba51d0d6b4741b16a1895",
          "topics": [
            "0xddf252ad1be2c89b69c2b068fc378daa952ba7f163c4a11628f55a4df523b3ef",
            "0x0000000000000000000000000000000000000000000000000000000000000000",
            "0x0000000000000000000000006f82486463f12a422dbc7c32cb34a7ed8e26bb99",
            "0x0000000000000000000000000000000000000000000000000000000000000009"
          ],
          "data": "0x",
          "blockHash": "0x46db7050312f009a93f930477f574d1dc21f6e4c5c402ab259d7938e64df4ecb",
          "blockNumber": "0xa8647d",
          "blockTimestamp": "0x6a2a791c",
          "transactionHash": "0x7cf6ed95f3467be1b92c4eb5c678117325ae167f0ae09f120c295f0da55b4fba",
          "transactionIndex": "0xdb",
          "logIndex": "0x251",
          "removed": false
        },
        {
          "address": "0xfe2abc15793204656c6ba51d0d6b4741b16a1895",
          "topics": [
            "0xf8e1a15aba9398e019f0b49df1a4fde98ee17ae345cb5f6b5e2c27f5033e8ce7"
          ],
          "data": "0x0000000000000000000000000000000000000000000000000000000000000009",
          "blockHash": "0x46db7050312f009a93f930477f574d1dc21f6e4c5c402ab259d7938e64df4ecb",
          "blockNumber": "0xa8647d",
          "blockTimestamp": "0x6a2a791c",
          "transactionHash": "0x7cf6ed95f3467be1b92c4eb5c678117325ae167f0ae09f120c295f0da55b4fba",
          "transactionIndex": "0xdb",
          "logIndex": "0x252",
          "removed": false
        },
        {
          "address": "0xfe2abc15793204656c6ba51d0d6b4741b16a1895",
          "topics": [
            "0xddf252ad1be2c89b69c2b068fc378daa952ba7f163c4a11628f55a4df523b3ef",
            "0x0000000000000000000000000000000000000000000000000000000000000000",
            "0x0000000000000000000000006f82486463f12a422dbc7c32cb34a7ed8e26bb99",
            "0x000000000000000000000000000000000000000000000000000000000000000a"
          ],
          "data": "0x",
          "blockHash": "0x46db7050312f009a93f930477f574d1dc21f6e4c5c402ab259d7938e64df4ecb",
          "blockNumber": "0xa8647d",
          "blockTimestamp": "0x6a2a791c",
          "transactionHash": "0x7cf6ed95f3467be1b92c4eb5c678117325ae167f0ae09f120c295f0da55b4fba",
          "transactionIndex": "0xdb",
          "logIndex": "0x253",
          "removed": false
        },
        {
          "address": "0xfe2abc15793204656c6ba51d0d6b4741b16a1895",
          "topics": [
            "0xf8e1a15aba9398e019f0b49df1a4fde98ee17ae345cb5f6b5e2c27f5033e8ce7"
          ],
          "data": "0x000000000000000000000000000000000000000000000000000000000000000a",
          "blockHash": "0x46db7050312f009a93f930477f574d1dc21f6e4c5c402ab259d7938e64df4ecb",
          "blockNumber": "0xa8647d",
          "blockTimestamp": "0x6a2a791c",
          "transactionHash": "0x7cf6ed95f3467be1b92c4eb5c678117325ae167f0ae09f120c295f0da55b4fba",
          "transactionIndex": "0xdb",
          "logIndex": "0x254",
          "removed": false
        }
      ],
      "logsBloom": "0x04000000000000000000000000000000000000000000000000000000000080000000000000080000000000000000000000001000060480000020000040240800000030000000000000000008000000000000000000040000000000000000000008000008020000000000000000000800000000000000000000000010000000000080000400100000010000000000001000001800000000000000000000000000000000000000000000000100000000002000000000800000002000080000408040000002000000000000000000000000000000008000000000000100000060000000000000000000200000000000000000000000008000000000000000800000",
      "type": "0x2",
      "transactionHash": "0x7cf6ed95f3467be1b92c4eb5c678117325ae167f0ae09f120c295f0da55b4fba",
      "transactionIndex": "0xdb",
      "blockHash": "0x46db7050312f009a93f930477f574d1dc21f6e4c5c402ab259d7938e64df4ecb",
      "blockNumber": "0xa8647d",
      "gasUsed": "0x9111e",
      "effectiveGasPrice": "0x1a126c4ef",
      "from": "0x6f82486463f12a422dbc7c32cb34a7ed8e26bb99",
      "to": "0xfe2abc15793204656c6ba51d0d6b4741b16a1895",
      "contractAddress": null
    },
    {
      "status": "0x1",
      "cumulativeGasUsed": "0x11a4126",
      "logs": [
        {
          "address": "0xfe2abc15793204656c6ba51d0d6b4741b16a1895",
          "topics": [
            "0x17307eab39ab6107e8899845ad3d59bd9653f200f220920489ca2b5937696c31",
            "0x0000000000000000000000006f82486463f12a422dbc7c32cb34a7ed8e26bb99",
            "0x0000000000000000000000008ff9fdf34811cbb03600b032929c83028fa89095"
          ],
          "data": "0x0000000000000000000000000000000000000000000000000000000000000001",
          "blockHash": "0x46db7050312f009a93f930477f574d1dc21f6e4c5c402ab259d7938e64df4ecb",
          "blockNumber": "0xa8647d",
          "blockTimestamp": "0x6a2a791c",
          "transactionHash": "0x7b8548107cb40017d39ce7d286b7e2d1f1a464bbd61fa6166d650d1b650ab831",
          "transactionIndex": "0xdc",
          "logIndex": "0x255",
          "removed": false
        }
      ],
      "logsBloom": "0x00000000000000000000000000001000000000000000000000000000000080000000000000080000000000000000000000000000000000000000002040000800000000000000000000000000000000000000000000000000000000000000000002000008000000000000000000000000000000000000000000000000000000200000000000100000000000000000000000000000000000000000000000000000000000000000000000000000000000000000000000000000000000000000000000000000000000000000000000000000000000000000000000000000000000000000200800000000000000000000000000000000000000000000000000000000",
      "type": "0x2",
      "transactionHash": "0x7b8548107cb40017d39ce7d286b7e2d1f1a464bbd61fa6166d650d1b650ab831",
      "transactionIndex": "0xdc",
      "blockHash": "0x46db7050312f009a93f930477f574d1dc21f6e4c5c402ab259d7938e64df4ecb",
      "blockNumber": "0xa8647d",
      "gasUsed": "0xb63b",
      "effectiveGasPrice": "0x1a126c4ef",
      "from": "0x6f82486463f12a422dbc7c32cb34a7ed8e26bb99",
      "to": "0xfe2abc15793204656c6ba51d0d6b4741b16a1895",
      "contractAddress": null
    },
    {
      "status": "0x1",
      "cumulativeGasUsed": "0x11d1f70",
      "logs": [
        {
          "address": "0xfe2abc15793204656c6ba51d0d6b4741b16a1895",
          "topics": [
            "0xddf252ad1be2c89b69c2b068fc378daa952ba7f163c4a11628f55a4df523b3ef",
            "0x0000000000000000000000006f82486463f12a422dbc7c32cb34a7ed8e26bb99",
            "0x0000000000000000000000008ff9fdf34811cbb03600b032929c83028fa89095",
            "0x0000000000000000000000000000000000000000000000000000000000000001"
          ],
          "data": "0x",
          "blockHash": "0x46db7050312f009a93f930477f574d1dc21f6e4c5c402ab259d7938e64df4ecb",
          "blockNumber": "0xa8647d",
          "blockTimestamp": "0x6a2a791c",
          "transactionHash": "0x2fb5adeefbc4cfe563a7ff3d1b277d35f0fdaefa7a5ff2b42124321f60e371c2",
          "transactionIndex": "0xdd",
          "logIndex": "0x256",
          "removed": false
        },
        {
          "address": "0x8ff9fdf34811cbb03600b032929c83028fa89095",
          "topics": [
            "0xb4aa437e32593e335dd4eb6069bc5e3225445ac88d9e797c5b9b99c404d9dcdd",
            "0x0000000000000000000000006f82486463f12a422dbc7c32cb34a7ed8e26bb99",
            "0x000000000000000000000000fe2abc15793204656c6ba51d0d6b4741b16a1895",
            "0x0000000000000000000000000000000000000000000000000000000000000001"
          ],
          "data": "0x00000000000000000000000000000000000000000000000000005af3107a4000",
          "blockHash": "0x46db7050312f009a93f930477f574d1dc21f6e4c5c402ab259d7938e64df4ecb",
          "blockNumber": "0xa8647d",
          "blockTimestamp": "0x6a2a791c",
          "transactionHash": "0x2fb5adeefbc4cfe563a7ff3d1b277d35f0fdaefa7a5ff2b42124321f60e371c2",
          "transactionIndex": "0xdd",
          "logIndex": "0x257",
          "removed": false
        }
      ],
      "logsBloom": "0x00000000000000000000800000001000000000000000000000000000000080000000000000080000000000008000000000000000000000000000002040040800000000000000000000000008000000000000000000040000000000000000000000000008000000000000000004000000000000000000040000000010000000200000000000100000000002000000000000000000000000000000000000000000000000020000000000000000000000000000080000000000000000000000000020000002000000020000000000000000000000000000000000000000000040000000000000000000000000000000000000000000000000000000000000000000",
      "type": "0x2",
      "transactionHash": "0x2fb5adeefbc4cfe563a7ff3d1b277d35f0fdaefa7a5ff2b42124321f60e371c2",
      "transactionIndex": "0xdd",
      "blockHash": "0x46db7050312f009a93f930477f574d1dc21f6e4c5c402ab259d7938e64df4ecb",
      "blockNumber": "0xa8647d",
      "gasUsed": "0x2de4a",
      "effectiveGasPrice": "0x1a126c4ef",
      "from": "0x6f82486463f12a422dbc7c32cb34a7ed8e26bb99",
      "to": "0x8ff9fdf34811cbb03600b032929c83028fa89095",
      "contractAddress": null
    },
    {
      "status": "0x1",
      "cumulativeGasUsed": "0x11fbaee",
      "logs": [
        {
          "address": "0xfe2abc15793204656c6ba51d0d6b4741b16a1895",
          "topics": [
            "0xddf252ad1be2c89b69c2b068fc378daa952ba7f163c4a11628f55a4df523b3ef",
            "0x0000000000000000000000006f82486463f12a422dbc7c32cb34a7ed8e26bb99",
            "0x0000000000000000000000008ff9fdf34811cbb03600b032929c83028fa89095",
            "0x0000000000000000000000000000000000000000000000000000000000000002"
          ],
          "data": "0x",
          "blockHash": "0x46db7050312f009a93f930477f574d1dc21f6e4c5c402ab259d7938e64df4ecb",
          "blockNumber": "0xa8647d",
          "blockTimestamp": "0x6a2a791c",
          "transactionHash": "0x6ddb70478825796517fe74a4507e2b0fae2abc346697429f69e0db34a781f449",
          "transactionIndex": "0xde",
          "logIndex": "0x258",
          "removed": false
        },
        {
          "address": "0x8ff9fdf34811cbb03600b032929c83028fa89095",
          "topics": [
            "0xb4aa437e32593e335dd4eb6069bc5e3225445ac88d9e797c5b9b99c404d9dcdd",
            "0x0000000000000000000000006f82486463f12a422dbc7c32cb34a7ed8e26bb99",
            "0x000000000000000000000000fe2abc15793204656c6ba51d0d6b4741b16a1895",
            "0x0000000000000000000000000000000000000000000000000000000000000002"
          ],
          "data": "0x00000000000000000000000000000000000000000000000000005af3107a4000",
          "blockHash": "0x46db7050312f009a93f930477f574d1dc21f6e4c5c402ab259d7938e64df4ecb",
          "blockNumber": "0xa8647d",
          "blockTimestamp": "0x6a2a791c",
          "transactionHash": "0x6ddb70478825796517fe74a4507e2b0fae2abc346697429f69e0db34a781f449",
          "transactionIndex": "0xde",
          "logIndex": "0x259",
          "removed": false
        }
      ],
      "logsBloom": "0x04000000000000000000800000001000000000000000000000000000000080000000000000080000000000008000000000000000000000000000002040000800000000000000000000000008000000000000000000000000000000000000000000000008000000000000000004000000000000000000040000000010000000200000000000100000000002000000000000000000000000000000000000000000000000020000000000000100000000000000080000000000000000000000000020000002000000020000000000000000000000000000000000000000000000000000000000000000000000000000000000000000008000000000000000000000",
      "type": "0x2",
      "transactionHash": "0x6ddb70478825796517fe74a4507e2b0fae2abc346697429f69e0db34a781f449",
      "transactionIndex": "0xde",
      "blockHash": "0x46db7050312f009a93f930477f574d1dc21f6e4c5c402ab259d7938e64df4ecb",
      "blockNumber": "0xa8647d",
      "gasUsed": "0x29b7e",
      "effectiveGasPrice": "0x1a126c4ef",
      "from": "0x6f82486463f12a422dbc7c32cb34a7ed8e26bb99",
      "to": "0x8ff9fdf34811cbb03600b032929c83028fa89095",
      "contractAddress": null
    },
    {
      "status": "0x1",
      "cumulativeGasUsed": "0x122566c",
      "logs": [
        {
          "address": "0xfe2abc15793204656c6ba51d0d6b4741b16a1895",
          "topics": [
            "0xddf252ad1be2c89b69c2b068fc378daa952ba7f163c4a11628f55a4df523b3ef",
            "0x0000000000000000000000006f82486463f12a422dbc7c32cb34a7ed8e26bb99",
            "0x0000000000000000000000008ff9fdf34811cbb03600b032929c83028fa89095",
            "0x0000000000000000000000000000000000000000000000000000000000000003"
          ],
          "data": "0x",
          "blockHash": "0x46db7050312f009a93f930477f574d1dc21f6e4c5c402ab259d7938e64df4ecb",
          "blockNumber": "0xa8647d",
          "blockTimestamp": "0x6a2a791c",
          "transactionHash": "0x4a145622d693912f2696e0c58cfde2997903dce3283e26c1b7c27ea8929145c7",
          "transactionIndex": "0xdf",
          "logIndex": "0x25a",
          "removed": false
        },
        {
          "address": "0x8ff9fdf34811cbb03600b032929c83028fa89095",
          "topics": [
            "0xb4aa437e32593e335dd4eb6069bc5e3225445ac88d9e797c5b9b99c404d9dcdd",
            "0x0000000000000000000000006f82486463f12a422dbc7c32cb34a7ed8e26bb99",
            "0x000000000000000000000000fe2abc15793204656c6ba51d0d6b4741b16a1895",
            "0x0000000000000000000000000000000000000000000000000000000000000003"
          ],
          "data": "0x00000000000000000000000000000000000000000000000000005af3107a4000",
          "blockHash": "0x46db7050312f009a93f930477f574d1dc21f6e4c5c402ab259d7938e64df4ecb",
          "blockNumber": "0xa8647d",
          "blockTimestamp": "0x6a2a791c",
          "transactionHash": "0x4a145622d693912f2696e0c58cfde2997903dce3283e26c1b7c27ea8929145c7",
          "transactionIndex": "0xdf",
          "logIndex": "0x25b",
          "removed": false
        }
      ],
      "logsBloom": "0x00000000000000000000800000001000000000000000000000000000000080000000000000080000000000008000000000000000020000000000002040000800000000000000000000000008000000000000000000000000000000000000000000000008000000000000000004000000000000000000040000000010000000200000000000100000000002000000000000000000000000000000000000000000000000020000000000000000000000000000080000800000000000000000400020000002000000020000000000000000000000000000000000000000000000000000000000000000000000000000000000000000000000000000000000000000",
      "type": "0x2",
      "transactionHash": "0x4a145622d693912f2696e0c58cfde2997903dce3283e26c1b7c27ea8929145c7",
      "transactionIndex": "0xdf",
      "blockHash": "0x46db7050312f009a93f930477f574d1dc21f6e4c5c402ab259d7938e64df4ecb",
      "blockNumber": "0xa8647d",
      "gasUsed": "0x29b7e",
      "effectiveGasPrice": "0x1a126c4ef",
      "from": "0x6f82486463f12a422dbc7c32cb34a7ed8e26bb99",
      "to": "0x8ff9fdf34811cbb03600b032929c83028fa89095",
      "contractAddress": null
    },
    {
      "status": "0x1",
      "cumulativeGasUsed": "0x124f1ea",
      "logs": [
        {
          "address": "0xfe2abc15793204656c6ba51d0d6b4741b16a1895",
          "topics": [
            "0xddf252ad1be2c89b69c2b068fc378daa952ba7f163c4a11628f55a4df523b3ef",
            "0x0000000000000000000000006f82486463f12a422dbc7c32cb34a7ed8e26bb99",
            "0x0000000000000000000000008ff9fdf34811cbb03600b032929c83028fa89095",
            "0x0000000000000000000000000000000000000000000000000000000000000004"
          ],
          "data": "0x",
          "blockHash": "0x46db7050312f009a93f930477f574d1dc21f6e4c5c402ab259d7938e64df4ecb",
          "blockNumber": "0xa8647d",
          "blockTimestamp": "0x6a2a791c",
          "transactionHash": "0x9d060ccf12c18f1e820cb47830bf7c24c6aa629e1677599530b6cca0322a4069",
          "transactionIndex": "0xe0",
          "logIndex": "0x25c",
          "removed": false
        },
        {
          "address": "0x8ff9fdf34811cbb03600b032929c83028fa89095",
          "topics": [
            "0xb4aa437e32593e335dd4eb6069bc5e3225445ac88d9e797c5b9b99c404d9dcdd",
            "0x0000000000000000000000006f82486463f12a422dbc7c32cb34a7ed8e26bb99",
            "0x000000000000000000000000fe2abc15793204656c6ba51d0d6b4741b16a1895",
            "0x0000000000000000000000000000000000000000000000000000000000000004"
          ],
          "data": "0x00000000000000000000000000000000000000000000000000005af3107a4000",
          "blockHash": "0x46db7050312f009a93f930477f574d1dc21f6e4c5c402ab259d7938e64df4ecb",
          "blockNumber": "0xa8647d",
          "blockTimestamp": "0x6a2a791c",
          "transactionHash": "0x9d060ccf12c18f1e820cb47830bf7c24c6aa629e1677599530b6cca0322a4069",
          "transactionIndex": "0xe0",
          "logIndex": "0x25d",
          "removed": false
        }
      ],
      "logsBloom": "0x00000000000000000000800000001000000000000000000000000000000080000000000000080000000000008000000000000000000000000000002040000800000000000000000000000008000000000000000000000000000000000000000008000008000000000000000004000000000000000000040000000010000000200000000000100000000002000000000000000000000000000000000000000000000000020000000000000000000000000000080000000000002000000000000020000002000000020000000000000000000000008000000000000000000000000000000000000000000000000000000000000000000000000000000000000000",
      "type": "0x2",
      "transactionHash": "0x9d060ccf12c18f1e820cb47830bf7c24c6aa629e1677599530b6cca0322a4069",
      "transactionIndex": "0xe0",
      "blockHash": "0x46db7050312f009a93f930477f574d1dc21f6e4c5c402ab259d7938e64df4ecb",
      "blockNumber": "0xa8647d",
      "gasUsed": "0x29b7e",
      "effectiveGasPrice": "0x1a126c4ef",
      "from": "0x6f82486463f12a422dbc7c32cb34a7ed8e26bb99",
      "to": "0x8ff9fdf34811cbb03600b032929c83028fa89095",
      "contractAddress": null
    },
    {
      "status": "0x1",
      "cumulativeGasUsed": "0x1278d68",
      "logs": [
        {
          "address": "0xfe2abc15793204656c6ba51d0d6b4741b16a1895",
          "topics": [
            "0xddf252ad1be2c89b69c2b068fc378daa952ba7f163c4a11628f55a4df523b3ef",
            "0x0000000000000000000000006f82486463f12a422dbc7c32cb34a7ed8e26bb99",
            "0x0000000000000000000000008ff9fdf34811cbb03600b032929c83028fa89095",
            "0x0000000000000000000000000000000000000000000000000000000000000005"
          ],
          "data": "0x",
          "blockHash": "0x46db7050312f009a93f930477f574d1dc21f6e4c5c402ab259d7938e64df4ecb",
          "blockNumber": "0xa8647d",
          "blockTimestamp": "0x6a2a791c",
          "transactionHash": "0x58099a228a5b393cacbfa428a90a7dfd8c0107d569fb0e276aa22d94f83c2e8f",
          "transactionIndex": "0xe1",
          "logIndex": "0x25e",
          "removed": false
        },
        {
          "address": "0x8ff9fdf34811cbb03600b032929c83028fa89095",
          "topics": [
            "0xb4aa437e32593e335dd4eb6069bc5e3225445ac88d9e797c5b9b99c404d9dcdd",
            "0x0000000000000000000000006f82486463f12a422dbc7c32cb34a7ed8e26bb99",
            "0x000000000000000000000000fe2abc15793204656c6ba51d0d6b4741b16a1895",
            "0x0000000000000000000000000000000000000000000000000000000000000005"
          ],
          "data": "0x00000000000000000000000000000000000000000000000000005af3107a4000",
          "blockHash": "0x46db7050312f009a93f930477f574d1dc21f6e4c5c402ab259d7938e64df4ecb",
          "blockNumber": "0xa8647d",
          "blockTimestamp": "0x6a2a791c",
          "transactionHash": "0x58099a228a5b393cacbfa428a90a7dfd8c0107d569fb0e276aa22d94f83c2e8f",
          "transactionIndex": "0xe1",
          "logIndex": "0x25f",
          "removed": false
        }
      ],
      "logsBloom": "0x00000000000000000000800000001000000000000000000000000000000080000000000000080000000000008000000000000000000000000000002040000800000010000000000000000008000000000000000000000000000000000000000000000008000000000000000004000000000000000000040000000010000000200000000000100000000002000000001000000800000000000000000000000000000000020000000000000000000000000000080000000000000000000000000020000002000000020000000000000000000000000000000000000000000000000000000000000000000000000000000000000000000000000000000000000000",
      "type": "0x2",
      "transactionHash": "0x58099a228a5b393cacbfa428a90a7dfd8c0107d569fb0e276aa22d94f83c2e8f",
      "transactionIndex": "0xe1",
      "blockHash": "0x46db7050312f009a93f930477f574d1dc21f6e4c5c402ab259d7938e64df4ecb",
      "blockNumber": "0xa8647d",
      "gasUsed": "0x29b7e",
      "effectiveGasPrice": "0x1a126c4ef",
      "from": "0x6f82486463f12a422dbc7c32cb34a7ed8e26bb99",
      "to": "0x8ff9fdf34811cbb03600b032929c83028fa89095",
      "contractAddress": null
    },
    {
      "status": "0x1",
      "cumulativeGasUsed": "0x1281eaf",
      "logs": [
        {
          "address": "0x8ff9fdf34811cbb03600b032929c83028fa89095",
          "topics": [
            "0x22c66d322025d97a762010bee890db9b4c7aa47fac636a660ffb905bf9ff6927",
            "0x0000000000000000000000006f82486463f12a422dbc7c32cb34a7ed8e26bb99",
            "0x000000000000000000000000fe2abc15793204656c6ba51d0d6b4741b16a1895",
            "0x0000000000000000000000000000000000000000000000000000000000000001"
          ],
          "data": "0x0000000000000000000000000000000000000000000000000000886c98b76000",
          "blockHash": "0x46db7050312f009a93f930477f574d1dc21f6e4c5c402ab259d7938e64df4ecb",
          "blockNumber": "0xa8647d",
          "blockTimestamp": "0x6a2a791c",
          "transactionHash": "0xa62e3e04d4cba86af6915d2f9b692d3482c0838c87b61265e2a1bac6a4bb77fc",
          "transactionIndex": "0xe2",
          "logIndex": "0x260",
          "removed": false
        }
      ],
      "logsBloom": "0x00000000000000000000800000000000000000000000000000000000000080000000000000080000000000008000000000000000000000000000000000040000000000000000000000000000000000000000000000040000000000000000000000000000000000000000000004000000000000000000040000000000000000000000000000100000000000000000000000000100000000000000000000000000000000000000000000000000000000000000080000000000000000020000000000000000000000020000000000000000000000000000000000000000000040000000000000000000000000000000000004000000000000000000000000000000",
      "type": "0x2",
      "transactionHash": "0xa62e3e04d4cba86af6915d2f9b692d3482c0838c87b61265e2a1bac6a4bb77fc",
      "transactionIndex": "0xe2",
      "blockHash": "0x46db7050312f009a93f930477f574d1dc21f6e4c5c402ab259d7938e64df4ecb",
      "blockNumber": "0xa8647d",
      "gasUsed": "0x9147",
      "effectiveGasPrice": "0x1a126c4ef",
      "from": "0x6f82486463f12a422dbc7c32cb34a7ed8e26bb99",
      "to": "0x8ff9fdf34811cbb03600b032929c83028fa89095",
      "contractAddress": null
    }
  ],
  "libraries": [],
  "pending": [],
  "returns": {},
  "timestamp": 1781168413016,
  "chain": 11155111,
  "commit": null
}