{
  "transactions": [
    {
      "hash": "0x4cdfbedde78b4695718051c13e1d56448000b31678b971d0a7bf05c86aa56453",
      "transactionType": "CALL",
      "contractName": null,
      "contractAddress": "0x8ff9fdf34811cbb03600b032929c83028fa89095",
      "function": "cancelListOrder(address,uint256)",
      "arguments": [
        "0xFe2aBc15793204656C6bA51D0d6b4741B16A1895",
        "5"
      ],
      "transaction": {
        "from": "0x6f82486463f12a422dbc7c32cb34a7ed8e26bb99",
        "to": "0x8ff9fdf34811cbb03600b032929c83028fa89095",
        "gas": "0x1270c",
        "value": "0x0",
        "input": "0x664fd551000000000000000000000000fe2abc15793204656c6ba51d0d6b4741b16a18950000000000000000000000000000000000000000000000000000000000000005",
        "nonce": "0x451",
        "chainId": "0xaa36a7"
      },
      "additionalContracts": [],
      "isFixedGasLimit": false
    },
    {
      "hash": "0xbd0ea298a001ef43979352f8c4f01d00cf8b2315ffac79a0c605f14b76de0a87",
      "transactionType": "CALL",
      "contractName": null,
      "contractAddress": "0x8ff9fdf34811cbb03600b032929c83028fa89095",
      "function": "buyMarket(address,uint256)",
      "arguments": [
        "0xFe2aBc15793204656C6bA51D0d6b4741B16A1895",
        "2"
      ],
      "transaction": {
        "from": "0xdf47f4de81fc0dcb36109fd8bf2057abc75c2c46",
        "to": "0x8ff9fdf34811cbb03600b032929c83028fa89095",
        "gas": "0x1fb57",
        "value": "0x214e8348c4f0000",
        "input": "0xa63d7859000000000000000000000000fe2abc15793204656c6ba51d0d6b4741b16a18950000000000000000000000000000000000000000000000000000000000000002",
        "nonce": "0x0",
        "chainId": "0xaa36a7"
      },
      "additionalContracts": [],
      "isFixedGasLimit": false
    },
    {
      "hash": "0xd30ad746d5943c3c3fbe0839950c087b0305922cc74c33c181d52947b11f76c7",
      "transactionType": "CALL",
      "contractName": null,
      "contractAddress": "0x8ff9fdf34811cbb03600b032929c83028fa89095",
      "function": "placeBid(address,uint256)",
      "arguments": [
        "0xFe2aBc15793204656C6bA51D0d6b4741B16A1895",
        "1"
      ],
      "transaction": {
        "from": "0xb76e002ae1cc4ab32b18ca9f24645f245f7ca8da",
        "to": "0x8ff9fdf34811cbb03600b032929c83028fa89095",
        "gas": "0x31898",
        "value": "0x1aa535d3d0c0000",
        "input": "0xd98b9bb5000000000000000000000000fe2abc15793204656c6ba51d0d6b4741b16a18950000000000000000000000000000000000000000000000000000000000000001",
        "nonce": "0x1a",
        "chainId": "0xaa36a7"
      },
      "additionalContracts": [],
      "isFixedGasLimit": false
    },
    {
      "hash": "0x31e4c5f56c850541a9ecdd8b5570a2b15411ff615fb96ddfde29f741def299c7",
      "transactionType": "CALL",
      "contractName": null,
      "contractAddress": "0x8ff9fdf34811cbb03600b032929c83028fa89095",
      "function": "placeBid(address,uint256)",
      "arguments": [
        "0xFe2aBc15793204656C6bA51D0d6b4741B16A1895",
        "3"
      ],
      "transaction": {
        "from": "0xb76e002ae1cc4ab32b18ca9f24645f245f7ca8da",
        "to": "0x8ff9fdf34811cbb03600b032929c83028fa89095",
        "gas": "0x31898",
        "value": "0x1cdda4faccd0000",
        "input": "0xd98b9bb5000000000000000000000000fe2abc15793204656c6ba51d0d6b4741b16a18950000000000000000000000000000000000000000000000000000000000000003",
        "nonce": "0x1b",
        "chainId": "0xaa36a7"
      },
      "additionalContracts": [],
      "isFixedGasLimit": false
    },
    {
      "hash": "0x8dc92ba316bb0d9989c8f4a77292844f258c1fd4bad05b9479a588e17557cfac",
      "transactionType": "CALL",
      "contractName": null,
      "contractAddress": "0x8ff9fdf34811cbb03600b032929c83028fa89095",
      "function": "placeBid(address,uint256)",
      "arguments": [
        "0xFe2aBc15793204656C6bA51D0d6b4741B16A1895",
        "1"
      ],
      "transaction": {
        "from": "0x1287bcd89d397661a840f059a77614952f7b30fe",
        "to": "0x8ff9fdf34811cbb03600b032929c83028fa89095",
        "gas": "0x12738",
        "value": "0x2386f26fc100000",
        "input": "0xd98b9bb5000000000000000000000000fe2abc15793204656c6ba51d0d6b4741b16a18950000000000000000000000000000000000000000000000000000000000000001",
        "nonce": "0x6",
        "chainId": "0xaa36a7"
      },
      "additionalContracts": [],
      "isFixedGasLimit": false
    },
    {
      "hash": "0x33c6cb1c4032ae4ea9cd0318ce4c594e2db1e3c7b141653914d6fe040ffd9e17",
      "transactionType": "CALL",
      "contractName": null,
      "contractAddress": "0x8ff9fdf34811cbb03600b032929c83028fa89095",
      "function": "matchLimitOrder(address,uint256)",
      "arguments": [
        "0xFe2aBc15793204656C6bA51D0d6b4741B16A1895",
        "1"
      ],
      "transaction": {
        "from": "0x6f82486463f12a422dbc7c32cb34a7ed8e26bb99",
        "to": "0x8ff9fdf34811cbb03600b032929c83028fa89095",
        "gas": "0x1e31e",
        "value": "0x0",
        "input": "0xda506609000000000000000000000000fe2abc15793204656c6ba51d0d6b4741b16a18950000000000000000000000000000000000000000000000000000000000000001",
        "nonce": "0x452",
        "chainId": "0xaa36a7"
      },
      "additionalContracts": [],
      "isFixedGasLimit": false
    },
    {
      "hash": "0xd0b621c0df9f0e2b93fda397c859059ececffe47fb84c17e8ade46bdaeddb880",
      "transactionType": "CALL",
      "contractName": null,
      "contractAddress": "0x8ff9fdf34811cbb03600b032929c83028fa89095",
      "function": "acceptBid(address,uint256)",
      "arguments": [
        "0xFe2aBc15793204656C6bA51D0d6b4741B16A1895",
        "3"
      ],
      "transaction": {
        "from": "0x6f82486463f12a422dbc7c32cb34a7ed8e26bb99",
        "to": "0x8ff9fdf34811cbb03600b032929c83028fa89095",
        "gas": "0x1f374",
        "value": "0x0",
        "input": "0x955a5a76000000000000000000000000fe2abc15793204656c6ba51d0d6b4741b16a18950000000000000000000000000000000000000000000000000000000000000003",
        "nonce": "0x453",
        "chainId": "0xaa36a7"
      },
      "additionalContracts": [],
      "isFixedGasLimit": false
    }
  ],
  "receipts": [
    {
      "status": "0x1",
      "cumulativeGasUsed": "0x179bc10",
      "logs": [
        {
          "address": "0xfe2abc15793204656c6ba51d0d6b4741b16a1895",
          "topics": [
            "0xddf252ad1be2c89b69c2b068fc378daa952ba7f163c4a11628f55a4df523b3ef",
            "0x0000000000000000000000008ff9fdf34811cbb03600b032929c83028fa89095",
            "0x0000000000000000000000006f82486463f12a422dbc7c32cb34a7ed8e26bb99",
            "0x0000000000000000000000000000000000000000000000000000000000000005"
          ],
          "data": "0x",
          "blockHash": "0x002dfed8f7007c8144dc170edb8a16a07e7e00d4ed1552591c4d19963e3410c1",
          "blockNumber": "0xa864ab",
          "blockTimestamp": "0x6a2a7b44",
          "transactionHash": "0x4cdfbedde78b4695718051c13e1d56448000b31678b971d0a7bf05c86aa56453",
          "transactionIndex": "0x12f",
          "logIndex": "0x2ae",
          "removed": false
        },
        {
          "address": "0x8ff9fdf34811cbb03600b032929c83028fa89095",
          "topics": [
            "0xd23ac4476ccf3eeb78c76d4b7bb113597bcd16c15d47656627ea6221d685ad73",
            "0x0000000000000000000000006f82486463f12a422dbc7c32cb34a7ed8e26bb99",
            "0x000000000000000000000000fe2abc15793204656c6ba51d0d6b4741b16a1895",
            "0x0000000000000000000000000000000000000000000000000000000000000005"
          ],
          "data": "0x",
          "blockHash": "0x002dfed8f7007c8144dc170edb8a16a07e7e00d4ed1552591c4d19963e3410c1",
          "blockNumber": "0xa864ab",
          "blockTimestamp": "0x6a2a7b44",
          "transactionHash": "0x4cdfbedde78b4695718051c13e1d56448000b31678b971d0a7bf05c86aa56453",
          "transactionIndex": "0x12f",
          "logIndex": "0x2af",
          "removed": false
        }
      ],
      "logsBloom": "0x00040000000000000000800000001000000000000000000000000000000080000000000000080000000000008000000000000000000000000000002040000800000010000000000000000008000000000000000000000000000000000000000000000008000000000000000004000000080000000000040000000010000000200000000000100000000000000000001000000800000000000000000000000000000000000000000000000000000000000000080000000000000000000000000000000002000000020000000000000000000000000000000000000000000000000000000000000000000000000000000000000000000000000000000000000000",
      "type": "0x2",
      "transactionHash": "0x4cdfbedde78b4695718051c13e1d56448000b31678b971d0a7bf05c86aa56453",
      "transactionIndex": "0x12f",
      "blockHash": "0x002dfed8f7007c8144dc170edb8a16a07e7e00d4ed1552591c4d19963e3410c1",
      "blockNumber": "0xa864ab",
      "gasUsed": "0xd59d",
      "effectiveGasPrice": "0x1b91032e0",
      "from": "0x6f82486463f12a422dbc7c32cb34a7ed8e26bb99",
      "to": "0x8ff9fdf34811cbb03600b032929c83028fa89095",
      "contractAddress": null
    },
    {
      "status": "0x1",
      "cumulativeGasUsed": "0x170a342",
      "logs": [
        {
          "address": "0xfe2abc15793204656c6ba51d0d6b4741b16a1895",
          "topics": [
            "0xddf252ad1be2c89b69c2b068fc378daa952ba7f163c4a11628f55a4df523b3ef",
            "0x0000000000000000000000008ff9fdf34811cbb03600b032929c83028fa89095",
            "0x000000000000000000000000df47f4de81fc0dcb36109fd8bf2057abc75c2c46",
            "0x0000000000000000000000000000000000000000000000000000000000000002"
          ],
          "data": "0x",
          "blockHash": "0xcd33bf37845e8680055097b3eff15e5a19bdcc7476429d5f7e1ca64baaaa8ed0",
          "blockNumber": "0xa864ac",
          "blockTimestamp": "0x6a2a7b50",
          "transactionHash": "0xbd0ea298a001ef43979352f8c4f01d00cf8b2315ffac79a0c605f14b76de0a87",
          "transactionIndex": "0x110",
          "logIndex": "0x23b",
          "removed": false
        },
        {
          "address": "0x8ff9fdf34811cbb03600b032929c83028fa89095",
          "topics": [
            "0x7e769bd821f1c5a635e0bd4c3654e8630e529600e771ec4b9018b0c0bc5a928d",
            "0x0000000000000000000000006f82486463f12a422dbc7c32cb34a7ed8e26bb99",
            "0x000000000000000000000000df47f4de81fc0dcb36109fd8bf2057abc75c2c46",
            "0x000000000000000000000000fe2abc15793204656c6ba51d0d6b4741b16a1895"
          ],
          "data": "0x000000000000000000000000000000000000000000000000000000000000000200000000000000000000000000000000000000000000000000005af3107a40000000000000000000000000000000000000000000000000000000000000000002",
          "blockHash": "0xcd33bf37845e8680055097b3eff15e5a19bdcc7476429d5f7e1ca64baaaa8ed0",
          "blockNumber": "0xa864ac",
          "blockTimestamp": "0x6a2a7b50",
          "transactionHash": "0xbd0ea298a001ef43979352f8c4f01d00cf8b2315ffac79a0c605f14b76de0a87",
          "transactionIndex": "0x110",
          "logIndex": "0x23c",
          "removed": false
        }
      ],
      "logsBloom": "0x04000000000000000000800000001000000000000000020000000000000080000000000000080000000000008000000000000000000000000000002040000800000000000000000000000008000000080000000000000000000000000000000000000008000000000000000004000000000000000000040000000010000000200000000000100002000000000000000000000000000000000000400000000000000000000000000000000100000000000000080000000000000000000000000000000002000000020000000000000000000800000000000000000000000000000000000000000000000001000000000000000000008000000000000000000000",
      "type": "0x2",
      "transactionHash": "0xbd0ea298a001ef43979352f8c4f01d00cf8b2315ffac79a0c605f14b76de0a87",
      "transactionIndex": "0x110",
      "blockHash": "0xcd33bf37845e8680055097b3eff15e5a19bdcc7476429d5f7e1ca64baaaa8ed0",
      "blockNumber": "0xa864ac",
      "gasUsed": "0x16f4f",
      "effectiveGasPrice": "0x1b24a79c8",
      "from": "0xdf47f4de81fc0dcb36109fd8bf2057abc75c2c46",
      "to": "0x8ff9fdf34811cbb03600b032929c83028fa89095",
      "contractAddress": null
    },
    {
      "status": "0x1",
      "cumulativeGasUsed": "0x165bd02",
      "logs": [
        {
          "address": "0x8ff9fdf34811cbb03600b032929c83028fa89095",
          "topics": [
            "0xdd49bbb40d47a514dddcd458e9718364143bc24a0cca58439ee6f4f45e4ce10d",
            "0x000000000000000000000000b76e002ae1cc4ab32b18ca9f24645f245f7ca8da",
            "0x000000000000000000000000fe2abc15793204656c6ba51d0d6b4741b16a1895",
            "0x0000000000000000000000000000000000000000000000000000000000000001"
          ],
          "data": "0x00000000000000000000000000000000000000000000000001aa535d3d0c0000",
          "blockHash": "0x6fafba8979a2f5f758b208ad6092176437a2dcbdbdc7296eaeef104dd596d27d",
          "blockNumber": "0xa864ad",
          "blockTimestamp": "0x6a2a7b5c",
          "transactionHash": "0xd30ad746d5943c3c3fbe0839950c087b0305922cc74c33c181d52947b11f76c7",
          "transactionIndex": "0x109",
          "logIndex": "0x2d3",
          "removed": false
        }
      ],
      "logsBloom": "0x00000000000020000000800000000000000000000000000000000000000000400000000000000000000000008000000000000000000000000000000000040000000000000000000000000000000000000008000000040000000000000000000000000000000000000000000004000000000000000000040000008000000000000000000000000000000000000000000000000000040000000000000000000000000000000000000000000000000000000000080000000000000000000000000000000000000000020000000000000000000000000000000000000000000040000000000000000000000000000000000000000000000000000000000000000100",
      "type": "0x2",
      "transactionHash": "0xd30ad746d5943c3c3fbe0839950c087b0305922cc74c33c181d52947b11f76c7",
      "transactionIndex": "0x109",
      "blockHash": "0x6fafba8979a2f5f758b208ad6092176437a2dcbdbdc7296eaeef104dd596d27d",
      "blockNumber": "0xa864ad",
      "gasUsed": "0x21df2",
      "effectiveGasPrice": "0x1b256526e",
      "from": "0xb76e002ae1cc4ab32b18ca9f24645f245f7ca8da",
      "to": "0x8ff9fdf34811cbb03600b032929c83028fa89095",
      "contractAddress": null
    },
    {
      "status": "0x1",
      "cumulativeGasUsed": "0x15de687",
      "logs": [
        {
          "address": "0x8ff9fdf34811cbb03600b032929c83028fa89095",
          "topics": [
            "0xdd49bbb40d47a514dddcd458e9718364143bc24a0cca58439ee6f4f45e4ce10d",
            "0x000000000000000000000000b76e002ae1cc4ab32b18ca9f24645f245f7ca8da",
            "0x000000000000000000000000fe2abc15793204656c6ba51d0d6b4741b16a1895",
            "0x0000000000000000000000000000000000000000000000000000000000000003"
          ],
          "data": "0x00000000000000000000000000000000000000000000000001cdda4faccd0000",
          "blockHash": "0xe89528d32b7b695d2ac1e1b49f3ebec96901e431fe949e51cd152173b808cf5d",
          "blockNumber": "0xa864ae",
          "blockTimestamp": "0x6a2a7b68",
          "transactionHash": "0x31e4c5f56c850541a9ecdd8b5570a2b15411ff615fb96ddfde29f741def299c7",
          "transactionIndex": "0xfe",
          "logIndex": "0x26a",
          "removed": false
        }
      ],
      "logsBloom": "0x00000000000020000000800000000000000000000000000000000000000000400000000000000000000000008000000000000000020000000000000000000000000000000000000000000000000000000008000000000000000000000000000000000000000000000000000004000000000000000000040000008000000000000000000000000000000000000000000000000000040000000000000000000000000000000000000000000000000000000000080000800000000000000000400000000000000000020000000000000000000000000000000000000000000000000000000000000000000000000000000000000000000000000000000000000100",
      "type": "0x2",
      "transactionHash": "0x31e4c5f56c850541a9ecdd8b5570a2b15411ff615fb96ddfde29f741def299c7",
      "transactionIndex": "0xfe",
      "blockHash": "0xe89528d32b7b695d2ac1e1b49f3ebec96901e431fe949e51cd152173b808cf5d",
      "blockNumber": "0xa864ae",
      "gasUsed": "0x21df2",
      "effectiveGasPrice": "0x1ae1dadf6",
      "from": "0xb76e002ae1cc4ab32b18ca9f24645f245f7ca8da",
      "to": "0x8ff9fdf34811cbb03600b032929c83028fa89095",
      "contractAddress": null
    },
    {
      "status": "0x1",
      "cumulativeGasUsed": "0x15d4e5b",
      "logs": [
        {
          "address": "0x8ff9fdf34811cbb03600b032929c83028fa89095",
          "topics": [
            "0xdd49bbb40d47a514dddcd458e9718364143bc24a0cca58439ee6f4f45e4ce10d",
            "0x0000000000000000000000001287bcd89d397661a840f059a77614952f7b30fe",
            "0x000000000000000000000000fe2abc15793204656c6ba51d0d6b4741b16a1895",
            "0x0000000000000000000000000000000000000000000000000000000000000001"
          ],
          "data": "0x00000000000000000000000000000000000000000000000002386f26fc100000",
          "blockHash": "0xd1ea86cba57e299fd32abcc90f4f708a20df16be85bfa4f56376a4e54f8e525e",
          "blockNumber": "0xa864af",
          "blockTimestamp": "0x6a2a7b74",
          "transactionHash": "0x8dc92ba316bb0d9989c8f4a77292844f258c1fd4bad05b9479a588e17557cfac",
          "transactionIndex": "0x109",
          "logIndex": "0x270",
          "removed": false
        }
      ],
      "logsBloom": "0x00000000000020000000800000000000000000000000000000000000000000400000000000000000000000008000000000000000000000000000000000040080000000000000000000000000000000000008000000040000000000000000000000000000000000000000000004000000000000000000040000000000000000000000000000000000000000000000000000000000000000000000000000000000000000400000000000000000000000000000084000000000000000000000000000000000000000020000000000000000000000000000000000000000000040000000000000000000000000000000000000000000000000000000000000000000",
      "type": "0x2",
      "transactionHash": "0x8dc92ba316bb0d9989c8f4a77292844f258c1fd4bad05b9479a588e17557cfac",
      "transactionIndex": "0x109",
      "blockHash": "0xd1ea86cba57e299fd32abcc90f4f708a20df16be85bfa4f56376a4e54f8e525e",
      "blockNumber": "0xa864af",
      "gasUsed": "0xd5bd",
      "effectiveGasPrice": "0x1aa765300",
      "from": "0x1287bcd89d397661a840f059a77614952f7b30fe",
      "to": "0x8ff9fdf34811cbb03600b032929c83028fa89095",
      "contractAddress": null
    },
    {
      "status": "0x1",
      "cumulativeGasUsed": "0x12b69f8",
      "logs": [
        {
          "address": "0xfe2abc15793204656c6ba51d0d6b4741b16a1895",
          "topics": [
            "0xddf252ad1be2c89b69c2b068fc378daa952ba7f163c4a11628f55a4df523b3ef",
            "0x0000000000000000000000008ff9fdf34811cbb03600b032929c83028fa89095",
            "0x0000000000000000000000001287bcd89d397661a840f059a77614952f7b30fe",
            "0x0000000000000000000000000000000000000000000000000000000000000001"
          ],
          "data": "0x",
          "blockHash": "0x91ed8582fb7716085f5b27a9bea28d0dca680fa58bb3aaf0083de7b0486ca075",
          "blockNumber": "0xa864b0",
          "blockTimestamp": "0x6a2a7b80",
          "transactionHash": "0x33c6cb1c4032ae4ea9cd0318ce4c594e2db1e3c7b141653914d6fe040ffd9e17",
          "transactionIndex": "0xda",
          "logIndex": "0x22c",
          "removed": false
        },
        {
          "address": "0x8ff9fdf34811cbb03600b032929c83028fa89095",
          "topics": [
            "0x7e769bd821f1c5a635e0bd4c3654e8630e529600e771ec4b9018b0c0bc5a928d",
            "0x0000000000000000000000006f82486463f12a422dbc7c32cb34a7ed8e26bb99",
            "0x0000000000000000000000001287bcd89d397661a840f059a77614952f7b30fe",
            "0x000000000000000000000000fe2abc15793204656c6ba51d0d6b4741b16a1895"
          ],
          "data": "0x000000000000000000000000000000000000000000000000000000000000000100000000000000000000000000000000000000000000000002386f26fc1000000000000000000000000000000000000000000000000000000000000000000001",
          "blockHash": "0x91ed8582fb7716085f5b27a9bea28d0dca680fa58bb3aaf0083de7b0486ca075",
          "blockNumber": "0xa864b0",
          "blockTimestamp": "0x6a2a7b80",
          "transactionHash": "0x33c6cb1c4032ae4ea9cd0318ce4c594e2db1e3c7b141653914d6fe040ffd9e17",
          "transactionIndex": "0xda",
          "logIndex": "0x22d",
          "removed": false
        }
      ],
      "logsBloom": "0x00000000000000000000800000001000000000000000020000000000000080000000000000080000000000008000000000000000000000000000002040040880000000000000000000000008000000000000000000040000000000000000000000000008000000000000000004000000000000000000040000000010000000200000000000100002000000000000000000000000000000000000400000000000000000400000000000000000000000000000084000000000000000000000000000000002000000020000000000000000000000000000000000000000000040000000000000000000000000000000000000000000000000000000000000000000",
      "type": "0x2",
      "transactionHash": "0x33c6cb1c4032ae4ea9cd0318ce4c594e2db1e3c7b141653914d6fe040ffd9e17",
      "transactionIndex": "0xda",
      "blockHash": "0x91ed8582fb7716085f5b27a9bea28d0dca680fa58bb3aaf0083de7b0486ca075",
      "blockNumber": "0xa864b0",
      "gasUsed": "0x15dc5",
      "effectiveGasPrice": "0x1a82aafb9",
      "from": "0x6f82486463f12a422dbc7c32cb34a7ed8e26bb99",
      "to": "0x8ff9fdf34811cbb03600b032929c83028fa89095",
      "contractAddress": null
    },
    {
      "status": "0x1",
      "cumulativeGasUsed": "0x18c0f05",
      "logs": [
        {
          "address": "0xfe2abc15793204656c6ba51d0d6b4741b16a1895",
          "topics": [
            "0xddf252ad1be2c89b69c2b068fc378daa952ba7f163c4a11628f55a4df523b3ef",
            "0x0000000000000000000000008ff9fdf34811cbb03600b032929c83028fa89095",
            "0x000000000000000000000000b76e002ae1cc4ab32b18ca9f24645f245f7ca8da",
            "0x0000000000000000000000000000000000000000000000000000000000000003"
          ],
          "data": "0x",
          "blockHash": "0x25b7fc924a9da614f5a0244b39cfce007a21a7f687145826e1787bd0a6958063",
          "blockNumber": "0xa864b1",
          "blockTimestamp": "0x6a2a7b8c",
          "transactionHash": "0xd0b621c0df9f0e2b93fda397c859059ececffe47fb84c17e8ade46bdaeddb880",
          "transactionIndex": "0x13b",
          "logIndex": "0x328",
          "removed": false
        },
        {
          "address": "0x8ff9fdf34811cbb03600b032929c83028fa89095",
          "topics": [
            "0x7e769bd821f1c5a635e0bd4c3654e8630e529600e771ec4b9018b0c0bc5a928d",
            "0x0000000000000000000000006f82486463f12a422dbc7c32cb34a7ed8e26bb99",
            "0x000000000000000000000000b76e002ae1cc4ab32b18ca9f24645f245f7ca8da",
            "0x000000000000000000000000fe2abc15793204656c6ba51d0d6b4741b16a1895"
          ],
          "data": "0x000000000000000000000000000000000000000000000000000000000000000300000000000000000000000000000000000000000000000001cdda4faccd00000000000000000000000000000000000000000000000000000000000000000003",
          "blockHash": "0x25b7fc924a9da614f5a0244b39cfce007a21a7f687145826e1787bd0a6958063",
          "blockNumber": "0xa864b1",
          "blockTimestamp": "0x6a2a7b8c",
          "transactionHash": "0xd0b621c0df9f0e2b93fda397c859059ececffe47fb84c17e8ade46bdaeddb880",
          "transactionIndex": "0x13b",
          "logIndex": "0x329",
          "removed": false
        }
      ],
      "logsBloom": "0x00000000000000000000800000001000000000000000020000000000000080000000000000080000000000008000000000000000020000000000002040000800000000000000000000000008000000000000000000000000000000000000000000000008000000000000000004000000000000000000040000008010000000200000000000100002000000000000000000000000040000000000400000000000000000000000000000000000000000000000080000800000000000000000400000000002000000020000000000000000000000000000000000000000000000000000000000000000000000000000000000000000000000000000000000000100",
      "type": "0x2",
      "transactionHash": "0xd0b621c0df9f0e2b93fda397c859059ececffe47fb84c17e8ade46bdaeddb880",
      "transactionIndex": "0x13b",
      "blockHash": "0x25b7fc924a9da614f5a0244b39cfce007a21a7f687145826e1787bd0a6958063",
      "blockNumber": "0xa864b1",
      "gasUsed": "0x15582",
      "effectiveGasPrice": "0x19ce100ce",
      "from": "0x6f82486463f12a422dbc7c32cb34a7ed8e26bb99",
      "to": "0x8ff9fdf34811cbb03600b032929c83028fa89095",
      "contractAddress": null
    }
  ],
  "libraries": [],
  "pending": [],
  "returns": {},
  "timestamp": 1781169036864,
  "chain": 11155111,
  "commit": null
}